:020000040800F2
:10000000E0190020D9010008D57C0008254400082B
:10001000D17C000805090008E18D000800000000FF
:10002000000000000000000000000000497D000802
:10003000790B000800000000457D0008A17D000844
:10004000F3010008F3010008F3010008F3010008C0
:10005000F3010008F3010008F3010008F3010008B0
:10006000F3010008F3010008F3010008F3010008A0
:10007000F3010008F3010008F3010008F301000890
:10008000F3010008C1090008F3010008F3010008AA
:10009000F3010008F3010008F3010008F301000870
:1000A000F3010008F3010008F3010008F301000860
:1000B000F3010008797E0008F3010008F30100084D
:1000C000F3010008F3010008F3010008F301000840
:1000D000F3010008F3010008F3010008F301000830
:1000E000F3010008F3010008F3010008F301000820
:1000F000F3010008F3010008F3010008D10900082A
:10010000F3010008F3010008F3010008F3010008FF
:10011000F301000835870008F3010008F301000827
:10012000F3010008F3010008F3010008F3010008DF
:10013000F30100080000000000000000F3010008C7
:10014000F3010008F3010008F3010008F3010008BF
:10015000F3010008F3010008F3010008F3010008AF
:10016000F3010008F3010008F3010008F30100089F
:10017000F3010008F3010008F3010008000000008B
:1001800000000000F3010008000000000000000073
:10019000F30100080000000000000000F301000867
:1001A000000000000000000000000000F301000853
:1001B000F3010008F3010008F3010008F30100084F
:1001C000F3010008DFF80CD000F08AFB004800477C
:1001D00051A10008E0190020064880470648004762
:1001E000FEE7FEE7FEE7FEE7FEE7FEE7FEE7FEE7E7
:1001F000FEE7FEE7657E0008C50100082DE9F05F17
:100200000546002092469B46884606468146402485
:100210001BE0284641464746224600F07BFA5346FB
:100220005A46C01A914110D311461846224600F092
:1002300062FA2D1A67EB01084F4622460120002181
:1002400000F059FA17EB00094E41201EA4F10104F9
:10025000DFDC484631462A464346BDE8F09F0000B1
:100260000649074A0868504343F2390210440860BF
:1002700040087047014908607047000000000020F6
:100280006D4EC641002800DA40427047D2B201E00C
:1002900000F8012B491EFBD270470022F6E710B58B
:1002A00013460A4604461946FFF7F0FF204610BDE4
:1002B0002DE9FE4F804681EA0300C00F0C460090F6
:1002C00021F0004123F00045B8EB0200A94105D21E
:1002D0004046214690461C460B46024623F000400D
:1002E000104347D0270DC7F30A00C3F30A51029009
:1002F000401A019040286BDAC3F3130040F4801BCE
:100300000098924620B10023D2EB030A63EB0B0B5B
:1003100001985946C0F14002504600F0ECF90646FB
:100320000D4650465946019A00F004FA10EB0800B9
:100330006141002487EA115284EAE7731A4340D0EE
:10034000009A62B3019A012A4FEA075215DC001B9A
:1003500061EB02014FF0004202EA0752CDE9004290
:10036000001C41F5801132462B4600F03BFA03B0E9
:10037000BDE8F08F40462146F9E7001B61EB020122
:10038000001C41F5801300185B412018A2F50017EE
:1003900047EB030140EAD570B6196D4111E06D08D5
:1003A0004FEA360645EAC0754FEA0752001B61EB7B
:1003B0000201001C41F5801149084FEA3000001984
:1003C000514132462B4603B0BDE8F04F00F0FBB977
:1003D0000098012240000023D0EB020263EBE0739F
:1003E000009821464FEAE074B8EB000061EB04018D
:1003F000E9E783F000435BE781F0004158E72DE92E
:10040000FE4F81EA030404F0004421F0004100940F
:100410004FF0000B23F0004350EA01045ED052EA93
:1004200003045BD0C3F30A54C1F30A552C44A4F26D
:10043000F3340194A0FB0254C1F3130141F4801181
:10044000C3F3130343F4801301FB024400FB034E88
:10045000840A970A44EA815447EA8357A4FB076851
:1004600002958D0A05FB07854FEA932C04FB0C547B
:100470002705029D4FEA065847EA1637B5EB0805EF
:100480006EEB070C870E920E47EA811742EA831241
:10049000A7FB0201B6EB0B0164EB00042B0D43EA52
:1004A0000C335E1844EB1C50DA465146E7FB020160
:1004B000C5F313044FEA0B3343EA14534FEA0432F3
:1004C000019C43EA0603A4F10C040294009CCDE9CC
:1004D00000B400F087F903B0BDE8F08F00200146BA
:1004E000F9E72DE9F04D81EA030404F0004B21F017
:1004F000004514464FF0000A23F0004150EA05027F
:1005000020D054EA01021DD0C5F30A570246C5F3B4
:100510001303C1F31300C1F30A5640F4801543F4EA
:100520008013A7EB0608101BD64608F2FD3873EBC4
:10053000050002D308F1010801E092185B41B8F10F
:10054000000F03DA00200146BDE8F08D00204FF4D3
:100550008011064684460EE0171B73EB050705D392
:10056000121B63EB050306434CEA010C49084FEAF2
:10057000300092185B4150EA0107EDD152EA0300C6
:1005800012D082EA040083EA0501084305D0101B5B
:10059000AB4106D20122002306E000224FF00043C7
:1005A00002E06FF0010253101AEB06004CEB085109
:1005B00010EB0A0041EB0B01BDE8F04D00F003B970
:1005C0000EB5C10F80EAE0700844CA07002140F26E
:1005D00033438DE80E000A460B4600F003F903B0E2
:1005E00000BD0EB540F2334102910021CDE900116A
:1005F0000A460B4600F0F6F803B000BD70B5C1F333
:100600000A5201F000450024C1F3130140F2FF3308
:1006100041F480119A4201DA002070BD40F2334368
:100620009A42A2F2334203DC524200F073F800E037
:1006300090402C43F1D0404270BDC1F30A5210B536
:10064000C1F3130140F2FF3341F480119A4201DA01
:10065000002010BD40F233439A42A2F2334203DC41
:10066000524200F057F810BD904010BD00F000421B
:1006700030F000400AD0C10D01F56071C0F31600E2
:1006800042EA0151C2084007114370470020014669
:10069000704701F0004330B421F0004150EA0102FC
:1006A00006D00A0DA2F56072C1F31301002A02DC24
:1006B00030BC00207047440F44EAC104C100E01878
:1006C00030BC00EBC25000F047B830B50B460146D5
:1006D00000202022012409E021FA02F59D4205D3E1
:1006E00003FA02F5491B04FA02F52844151EA2F18B
:1006F0000102F1DC30BD202A04DB203A00FA02F1CD
:10070000002070479140C2F1200320FA03F31943FF
:1007100090407047202A04DB203A21FA02F00021A1
:10072000704721FA02F3D040C2F120029140084301
:1007300019467047202A06DBCB17203A41FA02F00F
:1007400043EAE07306E041FA02F3D040C2F120022E
:1007500091400843194670470029A8BF7047401CC4
:10076000490008BF20F00100704710B4B0FA80FCC7
:1007700000FA0CF050EA010404BF10BC704749B104
:10078000CCF1200421FA04F411FA0CF118BF012174
:1007900021430843A3EB0C01CB1D4FEA00614FEA54
:1007A000102042BF002010BC704700EBC350104423
:1007B0000029A4BF10BC7047401C490008BF20F0AE
:1007C000010010BC704710B5141E73F1000408DA64
:1007D000401C41F1000192185B411A4301D120F005
:1007E000010010BD2DE9F04D92469B4611B1B1FAC2
:1007F00081F202E0B0FA80F220329046FFF77BFFF0
:1008000004460F4640EA0A0041EA0B0153465A46A5
:10081000084313D0114653EA010019D0C8F1400231
:100820005046FFF777FF05460E465046594642466A
:10083000FFF761FF084305D0012004E02046394658
:10084000BDE8F08D0020054346EAE0762C433743AF
:100850000A986305E40AA0EB08000022FD0A44EAB6
:1008600047540A3002D500200146E9E70105101976
:100870006941DDE9084500196941BDE8F04DA2E78D
:10088000C1F30A52C1F3130140F2FF3341F4801166
:100890009A4202DA00200146704740F233439A42FE
:1008A000A2F2334202DC5242FFF734BFFFF723BF0C
:1008B00030B5041E71F1000404DB4FF000444042E7
:1008C00064EB0101141E73F1000405DB1C464FF0BC
:1008D0000043524263EB0403994208BF904230BD8B
:1008E000064C074D06E0E06840F0010394E807007D
:1008F00098471034AC42F6D3FFF768FC88CB000869
:10090000A8CB0008FFE7FEE780B582B00190019810
:10091000806B0090009800F0A5F900990120087103
:1009200002B080BD80B582B001900198806B0090CC
:10093000009800F02BF900990120087102B080BDE9
:1009400080B582B001900198806B00900099086991
:1009500040F004000861009800F08CF90099012033
:10096000087102B080BD000080B582B0019001988E
:10097000806B00900099086940F0040008610098BD
:1009800000F01AF900990120087102B080BD000042
:1009900080B582B001900198806B0090009800F0C3
:1009A00065F902B080BD000080B582B00190019869
:1009B000806B0090009800F0FBF802B080BD000052
:1009C00080B540F2D010C2F2000000F05FFB80BDA5
:1009D00080B540F23020C2F2000000F057FB80BD2D
:1009E00082B001900198007810384AF6AB21CAF61F
:1009F000AA21A0FB01100009009000994CF2881078
:100A0000C0F60000405C0199C8650098042807D32F
:100A1000FFE701990868042262F30900886506E08F
:100A20000199086840F2FF3290438865FFE701981A
:100A3000806D02B07047000086B0059000208DF8F0
:100A400013000598806A03900598806910BBFFE742
:100A50000398029003281BD80299DFE801F0020DE9
:100A60000218059890F82F00C00720B1FFE7012079
:100A70008DF81300FFE70CE00598C06AB0F1C07F65
:100A800004D1FFE701208DF81300FFE701E000E04B
:100A9000FFE745E005988069B0F5005F25D1FFE7E5
:100AA0000398019003281ED80199DFE801F002069F
:100AB000021101208DF8130016E0059890F82F0020
:100AC000C00720B1FFE701208DF81300FFE70BE01E
:100AD0000598C06AB0F1C07F04D1FFE701208DF80E
:100AE0001300FFE700E0FFE719E0039800900328F8
:100AF00004D3FFE70098032804D00EE001208DF80E
:100B000013000BE0059890F82F00C00720B1FFE715
:100B100001208DF81300FFE700E0FFE7FFE7FFE7A4
:100B20009DF8130006B0704784B0039002910192C3
:100B3000009303980168086820F4802008600098FA
:100B400003990968486003988068402809D1FFE745
:100B50000198039909688860029803990968C86038
:100B600008E0029803990968886001980399096868
:100B7000C860FFE704B070477047000081B0EFF332
:100B8000108072B60090FFE7FEE7000080B582B0EB
:100B90000190019840F21C01C2F200010A686B4604
:100BA000002119601021452300F000F902B080BD3A
:100BB00081B0009001B0704781B0009001B07047E3
:100BC00086B0049003910292FFE7049840790128CF
:100BD00004D1FFE702208DF817003EE004990120C0
:100BE0004871FFE7FFE70499022008710498006844
:100BF00000680190029800F0100140F6FE7000FAC3
:100C000001F10198884301900399086849680843F5
:100C100000900098029901F0100100FA01F101988A
:100C2000084301900198049909680860029800F04F
:100C30001001C02000FA01F204980168086890438E
:100C40000860049901200871FFE7049900204871A9
:100C5000FFE700208DF81700FFE79DF8170006B0AA
:100C60007047000081B0009001B0704781B00090E3
:100C700001B0704781B0009001B0704780B582B07C
:100C80000090009820B9FFE701208DF8070016E0DA
:100C90000098007938B9FFE7009900204871009862
:100CA00000F012F8FFE70099022008710099002077
:100CB0000861009A012111718DF80700FFE79DF886
:100CC000070002B080BD000080B58AB00990002006
:100CD000089007900690059004900998006847F2E4
:100CE0000041C4F2000188425ED1FFE7FFE7002027
:100CF000039043F64000C4F20200016841F0005145
:100D00000160006800F0005003900398FFE7FFE7E0
:100D10000020029043F63000C4F20200016841F066
:100D200001010160006800F0010002900298FFE7F5
:100D300020200490032005900020009006900020C1
:100D4000C4F2020004A900F06DFC009940F2D0103A
:100D5000C2F20000019046F2A002C4F20202026058
:100D60004FF06062426040228260C1604FF4806256
:100D700002614FF4805242614FF480428261C1614E
:100D80000162416200F012FB18B1FFE7FFF7F6FEC7
:100D9000FFE7FFE7099840F2D011C2F20001C160FD
:100DA00009988863FFE7FFE70AB080BD80B58AB085
:100DB000DDF830C0089007910692059300208DF869
:100DC00013000390FFE708984079012804D1FFE75A
:100DD00002208DF82700BDE0089901204871FFE747
:100DE000FFE70899022008710798C0BBFFE7089841
:100DF000816840F60910C0F60000C8630898816851
:100E000040F69110C0F6000008640898816840F62A
:100E10004110C0F60000C86408980168086840F4F2
:100E2000805008600C98029040B1FFE702980428B7
:100E300009D0FFE7029808280AD00EE00898006859
:100E4000083003900AE0089800680C30039005E031
:100E5000089800681030039000E0FFE737E008983A
:100E6000C16840F62510C0F60000C8630898C16844
:100E700040F6A910C0F6000008640898C16840F662
:100E80006910C0F60000C86408980168086840F05E
:100E9000805008600C98019040B1FFE70198042849
:100EA00009D0FFE7019808280AD00EE008980068EA
:100EB000143003900AE0089800681830039005E0A9
:100EC000089800681C30039000E0FFE7FFE70798F0
:100ED00080B9FFE708980168086840F4005008608E
:100EE000089880680699039A059B00F017FB8DF817
:100EF00013000FE008980168086840F0005008608F
:100F00000898C0680699039A059B00F007FB8DF8C6
:100F10001300FFE7FFE7089900204871FFE79DF8FD
:100F2000130060B9FFE7079800F01001012000FAF4
:100F300001F20898016808681043086005E0089904
:100F4000086940F004000861FFE79DF813008DF880
:100F50002700FFE79DF827000AB080BD80B584B068
:100F600002900298806D019000F042FD009002987E
:100F700090F8350002280DD0FFE7029980204865DF
:100F8000FFE70299002081F83400FFE701208DF887
:100F90000F0055E002980168086820F0160008600C
:100FA00002980168486920F0800048610298006C4E
:100FB00020B9FFE70298806C38B1FFE7029801681A
:100FC000086820F008000860FFE7029801680868D8
:100FD00020F001000860FFE7029800680068C00781
:100FE000C8B1FFE700F004FD0099401A062811D3AC
:100FF000FFE70299202048650299032081F8350017
:10100000FFE70299002081F83400FFE703208DF804
:101010000F0015E0E0E70298C16D3F20884001997C
:1010200088600299012081F83500FFE702990020CD
:1010300081F83400FFE7FFE700208DF80F00FFE79D
:101040009DF80F0004B080BD82B00090009890F829
:101050003500022807D0FFE700998020486501206D
:101060008DF807000EE00099052081F83500009802
:101070000168086820F001000860FFE700208DF893
:101080000700FFE79DF8070002B0704780B586B003
:1010900005900020039040F21000C2F200000068AA
:1010A00048F2B511C1F64E31A0FB0110800A029042
:1010B0000598806D01900198006804900498059946
:1010C000C96DC840000700281AD5FFE705980068D9
:1010D00000684007002812D5FFE7059801680868F6
:1010E00020F0040008600598C16D0820884001992F
:1010F00088600599486D40F001004865FFE7FFE70B
:1011000004980599C96DC840C007A0B1FFE70598CC
:1011100000684069000600280CD5FFE70598C16DFE
:1011200001208840019988600599486D40F00200CF
:101130004865FFE7FFE704980599C96DC840400777
:10114000002814D5FFE7059800680068800700288C
:101150000CD5FFE70598C16D04208840019988608F
:101160000599486D40F004004865FFE7FFE70498E3
:101170000599C96DC840C006002847D5FFE7059806
:1011800000680068000700283FD5FFE70598C16D9B
:101190001020884001998860059800680068400325
:1011A00000281AD5FFE705980068006800030028AA
:1011B00009D4FFE70598006C20B1FFE70598016CA2
:1011C0008847FFE708E00598806C20B1FFE70598A5
:1011D000816C8847FFE7FFE716E005980068006824
:1011E000C005002807D4FFE705980168086820F0CB
:1011F00008000860FFE70598006C20B1FFE705983C
:10120000016C8847FFE7FFE7FFE7FFE704980599D0
:10121000C96DC8408006002840F18D80FFE7059821
:1012200000680068C006002840F18480FFE7059848
:10123000C16D2020884001998860059890F835009C
:10124000052834D1FFE705980168086820F01600EA
:10125000086005980168486920F080004861059899
:10126000006C20B9FFE70598806C38B1FFE705985E
:101270000168086820F008000860FFE70598C16D64
:101280003F208840019988600599012081F8350048
:10129000FFE70599002081F83400FFE70598006D0D
:1012A00020B1FFE70598016D8847FFE77BE00598CF
:1012B00000680068400300281AD5FFE70598006819
:1012C00000680003002809D4FFE70598406C20B1AE
:1012D000FFE70598416C8847FFE708E00598C06B79
:1012E00020B1FFE70598C16B8847FFE7FFE720E0E3
:1012F000059800680068C005002811D4FFE705982C
:101300000168086820F0100008600599012081F844
:101310003500FFE70599002081F83400FFE7FFE77B
:101320000598C06B20B1FFE70598C16B8847FFE7C0
:10133000FFE7FFE7FFE70598406DA0B3FFE70598DB
:10134000406DC00730B3FFE70599052081F83500EF
:1013500005980168086820F001000860FFE703981D
:10136000013003900299884201D9FFE707E0FFE7C7
:10137000059800680068C0070028F0D1FFE70599CC
:10138000012081F83500FFE70599002081F834003D
:10139000FFE7FFE70598C06C20B1FFE70598C16C37
:1013A0008847FFE7FFE706B080BD000080B586B044
:1013B00004900020039000F01BFB0290049820B9D9
:1013C000FFE701208DF81700A3E00498406A08B1F8
:1013D000FFE7FFE70499022081F83500FFE7049951
:1013E000002081F83400FFE704980168086820F0C5
:1013F00001000860FFE7049800680068C00790B12A
:10140000FFE700F0F5FA0299401A06280AD3FFE731
:101410000499202048650499032081F835008DF84F
:10142000170076E0E7E704980068006803900398E7
:1014300048F23F01CFF21001084003900499009157
:101440004868D1F808C0CB680A6940EA0C00184324
:1014500010434A6910438A691043CA691043096AF4
:1014600001430398084303900498406A042808D174
:10147000FFE70499C86A096B014303980843039086
:10148000FFE70398049909680860049800684069B8
:101490000390039820F0070003900498416A039892
:1014A000084303900498406A04281AD1FFE704987F
:1014B000816A0398084303900498C06A80B1FFE7EB
:1014C0000498FFF7B9FA50B1FFE704994020486546
:1014D0000499012081F835008DF8170019E0FFE725
:1014E000FFE703980499096848610498FFF778FAC0
:1014F00001900498C16D3F2088400199886004994B
:1015000000204865049A012182F835108DF81700F3
:10151000FFE79DF8170006B080BD000080B588B0D9
:10152000069005910492039300208DF80B00069815
:10153000806D0190FFE7069890F83400012804D1EF
:10154000FFE702208DF81F0045E00699012081F891
:101550003400FFE7FFE7069890F8350001282BD10B
:10156000FFE70699022081F83500069900204865BA
:1015700006980599049A039BFFF7D6FA0698C16D61
:101580003F2088400199886006980168086840F00B
:10159000160008600698006C38B1FFE706980168ED
:1015A000086840F008000860FFE7069801680868CE
:1015B00040F00100086009E0FFE70699002081F88B
:1015C0003400FFE702208DF80B00FFE79DF80B00C9
:1015D0008DF81F00FFE79DF81F0008B080BD0000D8
:1015E00080B584B0039000F003FA02900398019054
:1015F0000198013048B1FFE740F24000C2F200001C
:101600000178019808440190FFE7FFE700F0F0F946
:101610000299401A0199884201D2FFE7F6E704B027
:1016200080BD00008DB00C900B91002009900890B7
:1016300007900A90FFE70A980F2800F2BE81FFE7A3
:101640000A990120884009900B9800680999084080
:10165000089008980999884240F0AA81FFE70B9802
:10166000406800F00300012807D0FFE70B984068AE
:1016700000F0030002282FD1FFE70C988068079044
:101680000A984100032000FA01F107988843079067
:101690000B98C0680A99490000FA01F107980843BD
:1016A000079007980C9988600C98406807900A99F1
:1016B000012000FA01F10798884307900B984068D1
:1016C000C0F300100A9900FA01F107980843079047
:1016D00007980C994860FFE70B98406800F00300FA
:1016E000032818D0FFE70C98C06807900A984100BB
:1016F000032000FA01F10798884307900B9880684F
:101700000A99490000FA01F10798084307900798E1
:101710000C99C860FFE70B98406800F003000228AE
:1017200026D1FFE70C980A996FF0030202EA5101F3
:101730000844006A07900A9800F0070081000F2013
:1017400000FA01F10798884307900B9800690A99FD
:1017500001F00701890000FA01F10798084307909A
:1017600007980C990A9B02EA530211440862FFE7AA
:101770000C98006807900A984100032000FA01F1D4
:101780000798884307900B98406800F003000A9977
:10179000490000FA01F107980843079007980C994F
:1017A00008600B9880798007002800F00081FFE72F
:1017B000FFE70020069043F64400C4F202000168EF
:1017C00041F480410160006800F480400690069872
:1017D000FFE70A9820F0030043F60801C4F2010174
:1017E000405807900A9800F0030081000F2000FA8B
:1017F00001F10798884307900C980021C4F2020178
:10180000884203D1FFE70020059050E00C9840F299
:101810000041C4F20201884203D1FFE70120049095
:1018200042E00C9840F60001C4F20201884203D164
:10183000FFE70220039034E00C9840F60041C4F228
:101840000201884203D1FFE70320029026E00C98B2
:1018500041F20001C4F20201884203D1FFE70420F3
:10186000019018E00C9841F20041C4F20201884254
:1018700003D1FFE7052000900AE00C9941F6000231
:10188000C4F202020720914208BF06200090FFE741
:1018900000980190FFE701980290FFE702980390FB
:1018A000FFE703980490FFE704980590FFE7059889
:1018B000C0B20A9901F00301890000FA01F107980A
:1018C0000843079007980A9921F0030143F608029C
:1018D000C4F20102885043F60840C4F201000068D7
:1018E000079008990798884307900B988079C0065D
:1018F000002805D5FFE70899079808430790FFE7F8
:10190000079843F60841C4F20101086043F60C4011
:10191000C4F201000068079008990798884307906F
:101920000B9880798006002805D5FFE7089907986D
:1019300008430790FFE7079843F60C41C4F2010102
:10194000086043F60440C4F201000068079008995B
:101950000798884307900B9880798007002805D561
:10196000FFE70899079808430790FFE7079843F6B1
:101970000441C4F20101086043F60040C4F20100D2
:101980000068079008990798884307900B9880791A
:10199000C00728B1FFE70899079808430790FFE7B9
:1019A000079843F60041C4F201010860FFE7FFE732
:1019B000FFE70A9801300A903DE60DB0704700003D
:1019C00082B00190ADF802108DF801209DF8010061
:1019D00028B1FFE7BDF802000199886105E0BDF874
:1019E0000200000401998861FFE702B0704700001F
:1019F00040F20440C2F200000068704740F240002C
:101A0000C2F20000027840F20441C2F2000108680C
:101A1000104408607047000080B582B043F6004172
:101A2000C4F20201086840F400700860086840F4DD
:101A300080600860086840F480700860032000F04F
:101A40008FF80020019000F005F800F03BF80198B5
:101A500002B080BD80B582B0009040F21000C2F2AA
:101A60000000006840F24001C2F200010A784FF421
:101A70007A71B1FBF2F1B0FBF1F000F047FE20B15A
:101A8000FFE701208DF8070018E000980F280DD817
:101A9000FFE700994FF0FF30002200F047F8009870
:101AA00040F24401C2F20001086003E001208DF819
:101AB000070003E000208DF80700FFE79DF807000E
:101AC00002B080BD80B582B0FFE70020019043F6F0
:101AD0004400C4F20200016841F4804101600068E2
:101AE00000F4804001900198FFE7FFE7002000909C
:101AF00043F64000C4F20200016841F080510160E9
:101B0000006800F0805000900098FFE7072000F088
:101B100027F802B080BD000080B582B08DF80700C4
:101B20009DF9070007F03EFB02B080BD80B586B08E
:101B30008DF81700049103920020029007F04AFBF1
:101B400002909DF91700019002980499039A06F0FB
:101B5000C3F80146019807F045FB06B080BD0000C0
:101B600080B582B00190019807F05EFB02B080BDA5
:101B700080B584B002900191029820B9FFE701205E
:101B80008DF80F0021E1019843F60041C4F20201F3
:101B9000096801F00F01884212D9FFE7019943F665
:101BA0000040C4F202000170006800F00F000199CB
:101BB000884204D0FFE701208DF80F0005E1FFE720
:101BC00002980078800700282AD5FFE7029800785D
:101BD0004007002809D5FFE743F60801C4F20201D7
:101BE000086840F4E0500860FFE7029800780007BA
:101BF000002809D5FFE743F60801C4F2020108688E
:101C000040F460400860FFE743F60801C4F20201B7
:101C1000086820F0F000029A926810430860FFE71D
:101C200002980078C00700286ED0FFE7029840684D
:101C3000012811D1FFE743F60000C4F2020000685A
:101C400000F400310020B0EB514F04D1FFE7012038
:101C50008DF80F00B9E02CE002984068022805D00A
:101C6000FFE702984068032811D1FFE743F6000020
:101C7000C4F20200006800F000710020B0EB516F68
:101C800004D1FFE701208DF80F009EE010E043F63D
:101C90000000C4F20200006800F002010020B0EB76
:101CA000510F04D1FFE701208DF80F008DE0FFE711
:101CB000FFE743F60801C4F20201086820F00300C0
:101CC000029A526810430860FFF792FE0090FFE707
:101CD00043F60800C4F20200006800F00C0002990C
:101CE0004968B0EB810F0ED0FFE7FFF781FE009946
:101CF000401A41F28931884204D3FFE703208DF86E
:101D00000F0062E0E4E7FFE7019843F60041C4F208
:101D10000201096801F00F01884212D2FFE7019920
:101D200043F60040C4F202000170006800F00F00AA
:101D30000199884204D0FFE701208DF80F0044E0AC
:101D4000FFE702980078400700280CD5FFE743F62C
:101D50000801C4F20201086820F4E050029AD26837
:101D600010430860FFE702980078000700280DD5AF
:101D7000FFE743F60801C4F20201086820F460405E
:101D8000029A126940EAC2000860FFE700F04CF8CE
:101D900043F60801C4F202010968C9B20A094CF20B
:101DA0007011C0F60001895CC84040F21001C2F217
:101DB0000001086040F24400C2F200000068FFF732
:101DC00049FE00208DF80F00FFE79DF80F0004B0DA
:101DD00080BD000040F21000C2F2000000687047B1
:101DE00080B5FFF7F7FF43F60801C4F20201096866
:101DF000C1F382224CF28011C0F60001895CC84018
:101E000080BD000080B5FFF7E5FF43F60801C4F28E
:101E10000201096889B24A0B4CF28011C0F6000138
:101E2000895CC84080BD000080B586B00020059068
:101E3000049003900290019043F60800C4F202005F
:101E4000006800F00C00014600910C2800F29B8015
:101E50000099DFE801F0079898980D9898981398E2
:101E60009898570042F20040C0F2F400019090E0D0
:101E700041F20020C0F27A0001908AE043F60400AB
:101E8000C4F20200016801F03F01059100684002C0
:101E9000002813D5FFE743F60400C4F202000068EF
:101EA000C0F3881041F20021C0F27A01A0FB0101C9
:101EB000059A0023FEF7A2F9049012E043F604000D
:101EC000C4F202000068C0F3881042F20041C0F280
:101ED000F401A0FB0101059A0023FEF78FF904909D
:101EE000FFE743F60400C4F20200006800F440314A
:101EF000022000EBD130039004980399B0FBF1F07D
:101F0000019046E043F60400C4F20200016801F0CB
:101F10003F01059100684002002813D5FFE743F612
:101F20000400C4F202000068C0F3881041F20021EE
:101F3000C0F27A01A0FB0101059A0023FEF75EF9C9
:101F4000049012E043F60400C4F202000068C0F3FB
:101F5000881042F20041C0F2F401A0FB0101059A91
:101F60000023FEF74BF90490FFE743F60400C4F2A8
:101F700002000068C0F30270029004980299B0FB5E
:101F8000F1F0019005E042F20040C0F2F40001904F
:101F9000FFE7019806B080BD80B586B00490049834
:101FA00020B9FFE701208DF8170084E3049800783A
:101FB000C007002800F0BA80FFE743F60800C4F22B
:101FC0000200006800F00C00042828D0FFE743F668
:101FD0000800C4F20200006800F00C0008280BD1D1
:101FE000FFE743F60400C4F20200006800F480003A
:101FF000B0F5800F13D0FFE743F60800C4F20200EB
:10200000006800F00C000C281ED1FFE743F6040026
:10201000C4F2020000684002002815D5FFE743F62D
:102020000000C4F20200006800F400310020B0EBB0
:10203000514F08D0FFE70498406820B9FFE701201E
:102040008DF8170037E370E0FFE704984068B0F5BB
:10205000803F09D1FFE743F60001C4F2020108689E
:1020600040F48030086020E004984068B0F5A02F6C
:102070000DD1FFE743F60001C4F20201086840F405
:1020800080200860086840F4803008600CE043F667
:102090000001C4F20201086820F48030086008687A
:1020A00020F480200860FFE7FFE7FFE7049840681E
:1020B000E8B1FFE7FFF79CFC0390FFE743F6000061
:1020C000C4F20200006800F400310020B0EB514F70
:1020D0000CD1FFE7FFF78CFC0399401A652804D365
:1020E000FFE703208DF81700E5E2E7E71CE0FFF7C4
:1020F0007FFC0390FFE743F60000C4F20200006893
:1021000000F400310020B0EB514F0CD0FFE7FFF797
:102110006FFC0399401A652804D3FFE703208DF86C
:102120001700C8E2E7E7FFE7FFE7FFE7049800785A
:102130008007002840F1A980FFE743F60800C4F2B9
:102140000200006810F00C0F26D0FFE743F60800ED
:10215000C4F20200006800F00C00082809D1FFE773
:1021600043F60400C4F2020000684002002813D5C0
:10217000FFE743F60800C4F20200006800F00C001C
:102180000C282CD1FFE743F60400C4F202000068DB
:102190004002002823D4FFE743F60000C4F2020007
:1021A000006800F002010020B0EB510F09D0FFE7FA
:1021B0000498C068012804D0FFE701208DF81700BB
:1021C00079E243F60001C4F20201086820F0F80049
:1021D000049A126940EAC2000860FFE754E00498DC
:1021E000C06870B3FFE70021C4F2472101200860F6
:1021F000FFF7FEFB0390FFE743F60000C4F2020086
:10220000006800F002010020B0EB510F0CD1FFE795
:10221000FFF7EEFB0399401A032804D3FFE70320DE
:102220008DF8170047E2E7E743F60001C4F2020128
:10223000086820F0F800049A126940EAC2000860B9
:1022400021E00021C4F2472100200860FFF7D0FB05
:102250000390FFE743F60000C4F20200006800F0BC
:1022600002010020B0EB510F0CD0FFE7FFF7C0FBDD
:102270000399401A032804D3FFE703208DF81700C1
:1022800019E2E7E7FFE7FFE7FFE7049800780007B8
:1022900000284BD5FFE70498406918B3FFE740F6E4
:1022A0008061C4F2472101200860FFF7A1FB039081
:1022B000FFE743F67400C4F20200006800F0020178
:1022C0000020B0EB510F0CD1FFE7FFF791FB039912
:1022D000401A032804D3FFE703208DF81700EAE132
:1022E000E7E722E040F68061C4F247210020086061
:1022F000FFF77EFB0390FFE743F67400C4F2020091
:10230000006800F002010020B0EB510F0CD0FFE795
:10231000FFF76EFB0399401A032804D3FFE703205D
:102320008DF81700C7E1E7E7FFE7FFE704980078BB
:102330004007002840F1CE80FFE700208DF807001D
:1023400043F64000C4F202000068C000002815D423
:10235000FFE7FFE70020009043F64000C4F20200D0
:10236000016841F080510160006800F080500090E9
:102370000098FFE701208DF80700FFE747F2000013
:10238000C4F200000068C005002822D4FFE747F22D
:102390000001C4F20001086840F480700860FFF793
:1023A00027FB0390FFE747F20000C4F2000000683B
:1023B000C00500280CD4FFE7FFF71AFB0399401A69
:1023C000032804D3FFE703208DF8170073E1EAE741
:1023D000FFE7FFE704988068012809D1FFE743F68B
:1023E0007001C4F20201086840F0010008601FE0BB
:1023F0000498806805280DD1FFE743F67001C4F208
:102400000201086840F004000860086840F001001C
:1024100008600CE043F67001C4F20201086820F085
:1024200001000860086820F004000860FFE7FFE78B
:10243000FFE704988068F8B1FFE7FFF7D9FA039047
:10244000FFE743F67000C4F20200006800F00201EA
:102450000020B0EB510F0ED1FFE7FFF7C9FA039947
:10246000401A41F28931884204D3FFE703208DF8F6
:10247000170020E1E5E71EE0FFF7BAFA0390FFE757
:1024800043F67000C4F20200006800F00201002070
:10249000B0EB510F0ED0FFE7FFF7AAFA0399401AED
:1024A00041F28931884204D3FFE703208DF81700F9
:1024B00001E1E5E7FFE79DF80700012809D1FFE703
:1024C00043F64001C4F20201086820F08050086021
:1024D000FFE7FFE704988069002800F0E880FFE745
:1024E00043F60800C4F20200006800F00C0008285F
:1024F00000F08880FFE70498806902285FD1FFE739
:102500006021C4F2472100200860FFF771FA0390B0
:10251000FFE743F60000C4F20200006800F000711B
:102520000020B0EB516F0CD0FFE7FFF761FA039981
:10253000401A032804D3FFE703208DF81700BAE000
:10254000E7E70499C869D1F820C04B6A8A6A40EA73
:102550000C0040EA8310D2034FF6FF739A43A2F5B2
:1025600080321043CA6A40EA0260096B40EA017097
:1025700043F60401C4F2020108606021C4F247215D
:1025800001200860FFF734FA0390FFE743F60000EC
:10259000C4F20200006800F000710020B0EB516F3F
:1025A0000CD1FFE7FFF724FA0399401A032804D35C
:1025B000FFE703208DF817007DE0E7E721E06021C9
:1025C000C4F2472100200860FFF712FA0390FFE7EA
:1025D00043F60000C4F20200006800F00071002021
:1025E000B0EB516F0CD0FFE7FFF702FA0399401AE6
:1025F000032804D3FFE703208DF817005BE0E7E72B
:10260000FFE753E004988069012804D1FFE7012027
:102610008DF817004FE043F60400C4F20200006892
:1026200002900498806901283AD0FFE7029800F4EC
:1026300080000499C969884232D1FFE7029800F00E
:102640003F000499096A88422AD1FFE7029847F6B9
:10265000C07108400499496AB0EB811F20D1FFE79F
:10266000029800F440300499896AC9034FF6FF725A
:102670009143A1F58031884212D1FFE7029800F022
:1026800070600499C96AB0EB016F09D1FFE7029845
:1026900000F0E0400499096BB0EB017F04D0FFE744
:1026A00001208DF8170006E0FFE7FFE7FFE70020B5
:1026B0008DF81700FFE79DF8170006B080BD0000F9
:1026C00040F2B011C2F2000108680130086040F227
:1026D0000040C2F20000016801310160006840F270
:1026E0003801C2F20001096888420DDBFFE740F2C1
:1026F000F831C2F200010120086040F20041C2F24C
:10270000000100200860FFE77047000080B582B03C
:102710000190019805F01AFB02B080BD81B00090D5
:1027200001B0704781B0009001B0704785B0039050
:102730000291FFE7039890F83C00012804D1FFE7DD
:1027400002208DF813007EE00399012081F83C00FF
:10275000FFE7FFE70399022081F83D000398006836
:10276000406801900398006880680090019820F00C
:102770007000019002980168019808430190019847
:10278000039909684860039800680021C4F20101B8
:1027900088423CD0FFE703980068B0F1804F36D004
:1027A000FFE70398006840F20041C4F2000188424C
:1027B0002DD0FFE70398006840F60001C4F2000145
:1027C000884224D0FFE70398006840F60041C4F235
:1027D000000188421BD0FFE70398006840F20041E7
:1027E000C4F20101884212D0FFE70398006844F266
:1027F0000001C4F20101884209D0FFE70398006894
:1028000041F60001C4F2000188420ED1FFE70098B2
:1028100020F08000009002984168009808430090E2
:102820000098039909688860FFE70399012081F8FF
:102830003D00FFE70399002081F83C00FFE70020FE
:102840008DF81300FFE79DF8130005B070470000F6
:1028500080B582B00090009820B9FFE701208DF884
:1028600007003FE0009890F83D0040B9FFE700996D
:10287000002081F83C00009800F038F8FFE700994C
:10288000022081F83D00009951F8040B05F0FCFA94
:102890000099012081F84600FFE70099012081F8A6
:1028A0003E00009981F83F00009981F840000099AE
:1028B00081F84100FFE7FFE70099012081F842001D
:1028C000009981F84300009981F84400009981F84B
:1028D0004500FFE70099012081F83D0000208DF8B8
:1028E0000700FFE79DF8070002B080BD80B58CB0FF
:1028F0000B9000200A9009900890079006900B9882
:102900000068B0F1804F12D1FFE7FFE7002005908B
:1029100043F64000C4F20200016841F00101016089
:10292000006800F0010005900598FFE746E00B986D
:10293000006840F20041C4F2000188423DD1FFE747
:10294000FFE70020049043F64000C4F20200016853
:1029500041F002010160006800F002000490049858
:10296000FFE7FFE70020039043F63000C4F20200C7
:10297000016841F004010160006800F00400039068
:102980000398FFE74FF48070069002200790002123
:102990000191089109910A9040F60000C4F20200EA
:1029A00006A9FEF73FFE019A1D2002901146FFF78F
:1029B000BDF80298FFF7B0F8FFE7FFE70CB080BD65
:1029C00080B586B00490039100208DF80B00FFE7DE
:1029D000049890F83C00012804D1FFE702208DF80C
:1029E0001700ABE00499012081F83C00FFE7FFE706
:1029F0000499022081F83D000498006880680190E5
:102A0000019820F077000190019820F47F40019018
:102A1000019804990968886003980068009000286C
:102A200072D0FFE7009810286ED0FFE700982028AA
:102A30006AD0FFE70098302866D0FFE7009840286A
:102A400055D0FFE70098502837D0FFE7009860285E
:102A500040D0FFE7009870280BD0FFE70098B0F552
:102A6000805F05D0FFE70098B0F5005F16D052E018
:102A700055E004980068039B5A689968DB6805F084
:102A8000EDFA0498006880680190019840F07700A2
:102A90000190019804990968886040E004980068F2
:102AA000039B5A689968DB6805F0D8FA04980168B6
:102AB000886840F48040886031E004980068039A98
:102AC0005168D26805F0B6FC04980068502105F002
:102AD000DFFA24E004980068039A5168D26805F090
:102AE0005DFD04980068602105F0D2FA17E00498B3
:102AF0000068039A5168D26805F09CFC049800684D
:102B0000402105F0C5FA0AE00498006803990968B5
:102B100005F0BEFA03E001208DF80B00FFE70499F1
:102B2000012081F83D00FFE70499002081F83C0076
:102B3000FFE79DF80B008DF81700FFE79DF81700E1
:102B400006B080BD0000000080B582B00190019801
:102B5000007F042840F0EF80FFE740F29410C2F2BB
:102B600000000078C007F0B9FFE70198082100F0E5
:102B7000B9FE40F20841C2F20001086040F294112F
:102B8000C2F2000101200870FFE701980168086A9D
:102B900020F42060086201980168086A40F400701F
:102BA0000862FFE7C6E040F29410C2F2000000782D
:102BB000C007002800F0BD80FFE70198082100F061
:102BC00091FE014640F20C40C2F200000160019902
:102BD0000A6800215162006840F20841C2F2000117
:102BE0000968884211D9FFE740F20C40C2F20000A8
:102BF000006840F20841C2F200010968401A40F240
:102C00009811C2F20001086021E040F20840C2F2CF
:102C10000000006840F20C41C2F2000109688842DD
:102C200014D9FFE740F20840C2F20000016840F208
:102C30000C40C2F200000068401A4FF6FF710844D1
:102C400040F29811C2F200010860FFE7FFE740F28E
:102C50009810C2F200000068FDF7B2FC41EC100BC6
:102C60009FED511B53EC112B51EC100BFDF7C7FBE3
:102C700041EC100B51EC100B9FED4D0B53EC102B56
:102C8000FDF72FFC41EC100B51EC100BFDF7D5FCC0
:102C9000014640F29C10C2F200000160006840F260
:102CA0002001C2F200010968884211D8FFE740F212
:102CB000B831C2F200010020087040F29C10C2F24C
:102CC0000000006840F2B431C2F200010860FFE782
:102CD00040F29C10C2F20000006840F22001C2F2F3
:102CE00000010968884211D9FFE740F2B831C2F209
:102CF00000010120087040F2B430C2F20000006808
:102D000040F29C11C2F200010860FFE740F294110A
:102D1000C2F2000100200870FFE701980168086A0C
:102D200020F42060086201980168086A0862FFE7E1
:102D3000FFE7FFE7FFE740F2B830C2F2000000789B
:102D4000C007C0B1FFE740F2B810C2F2000001684E
:102D500001310160006840F22801C2F200010968F7
:102D6000884207DDFFE740F22401C2F200010020A3
:102D70000860FFE715E040F2B830C2F200000078CA
:102D8000C00768B9FFE740F2B811C2F200010020A5
:102D9000086040F22401C2F2000101200860FFE750
:102DA000FFE702B080BD00BFC3F5285C8FC2D53FEE
:102DB000000000000000004080B586B00490039140
:102DC000029200208DF80700FFE7049890F83C007D
:102DD000012804D1FFE702208DF8170080E0049954
:102DE000012081F83C00FFE7FFE70298B0B9FFE758
:102DF00004980068039B19685A68DB6805F042FB79
:102E000004980168886920F00C0088610398826842
:102E10000498016888691043886156E00298042884
:102E200017D1FFE704980068039B19685A68DB68AC
:102E300005F0DEFB04980168886920F44060886131
:102E40000398826804980168886940EA02208861D2
:102E50003AE00298082816D1FFE704980068039B1F
:102E600019685A68DB6805F0F9FB04980168C869BD
:102E700020F00C00C8610398826804980168C86952
:102E80001043C8611FE002980C2817D1FFE704988F
:102E90000068039B19685A68DB6805F015FC049804
:102EA0000168C86920F44060C8610398826804988A
:102EB0000168C86940EA0220C86103E001208DF87A
:102EC0000700FFE7FFE7FFE7FFE7FFE704990020C0
:102ED00081F83C00FFE79DF807008DF81700FFE739
:102EE0009DF8170006B080BD80B582B000900098B4
:102EF00020B9FFE701208DF807003FE0009890F827
:102F00003D0040B9FFE70099002081F83C0000989F
:102F100000F038F8FFE70099022081F83D000099A1
:102F200051F8040B04F0B0FF0099012081F846002D
:102F3000FFE70099012081F83E00009981F83F00E9
:102F4000009981F84000009981F84100FFE7FFE710
:102F50000099012081F84200009981F8430000990E
:102F600081F84400009981F84500FFE700990120AD
:102F700081F83D0000208DF80700FFE79DF807006D
:102F800002B080BD81B0009001B0704780B592B0B2
:102F900010900F9100208DF83B000F9828B9FFE7A3
:102FA000109890F83E000B901CE00F98042805D173
:102FB000FFE7109890F83F000A9010E00F9808285B
:102FC00005D1FFE7109890F84000099004E01098B0
:102FD00090F841000990FFE709980A90FFE70A98E6
:102FE0000B90FFE70B988DF833000F9828B9FFE797
:102FF000109890F8420008901CE00F98042805D122
:10300000FFE7109890F84300079010E00F98082809
:1030100005D1FFE7109890F84400069004E010985E
:1030200090F845000690FFE706980790FFE707989D
:103030000890FFE708988DF832009DF833000128CA
:1030400005D1FFE79DF83200012804D0FFE70120F9
:103050008DF84700E9E00F9828B9FFE710990220A2
:1030600081F83E001EE00F98042806D1FFE7109972
:10307000022081F83F00059012E00F98082806D141
:10308000FFE71099022081F84000049005E01099B4
:10309000022081F841000490FFE704980590FFE7C3
:1030A0000598FFE70F9828B9FFE71099022081F8EB
:1030B00042001EE00F98042806D1FFE71099022075
:1030C00081F84300039012E00F98082806D1FFE72B
:1030D0001099022081F84400029005E01099022026
:1030E00081F845000290FFE702980390FFE70398FC
:1030F000FFE70F9801900C2825D80199DFE801F02F
:10310000072323230E232323152323231C00109896
:103110000168C86840F00200C86018E010980168B3
:10312000C86840F00400C86011E010980168C868E1
:1031300040F00800C8600AE010980168C86840F0D4
:103140001000C86003E001208DF83B00FFE79DF808
:103150003B00002864D1FFE7109800680F99012216
:1031600004F060FF109800680021C4F20101884259
:103170003CD0FFE710980068B0F1804F36D0FFE7F1
:103180001098006840F20041C4F2000188422DD03E
:10319000FFE71098006840F60001C4F20001884281
:1031A00024D0FFE71098006840F60041C4F2000107
:1031B00088421BD0FFE71098006840F20041C4F23B
:1031C0000101884212D0FFE71098006844F2000124
:1031D000C4F20101884209D0FFE71098006841F667
:1031E0000001C4F20001884212D1FFE71098006884
:1031F000806800F007000D900D98062807D0FFE7C3
:1032000010980168086840F001000860FFE706E0D8
:1032100010980168086840F001000860FFE7FFE7C8
:103220009DF83B008DF84700FFE79DF8470012B07E
:1032300080BD000080B582B00190019800680069EF
:1032400000F002010020B0EB510F28D0FFE70198F9
:103250000068C06800F002010020B0EB510F1DD0E3
:10326000FFE7019801686FF00200086101990120F1
:103270000877019800688069800720B1FFE701980E
:10328000FFF762FC06E0019800F046F9019800F0B3
:103290003BFAFFE7019900200877FFE7FFE7019875
:1032A0000068006900F004010020B0EB910F29D004
:1032B000FFE701980068C06800F004010020B0EB4F
:1032C000910F1ED0FFE7019801686FF004000861BC
:1032D00001990220087701980068806910F4407F06
:1032E00004D0FFE70198FFF72FFC06E0019800F0FB
:1032F00013F9019800F008FAFFE701990020087718
:10330000FFE7FFE701980068006900F0080100206E
:10331000B0EBD10F28D0FFE701980068C06800F03B
:1033200008010020B0EBD10F1DD0FFE70198016824
:103330006FF008000861019904200877019800687F
:10334000C069800720B1FFE70198FFF7FDFB06E0A9
:10335000019800F0E1F8019800F0D6F9FFE7019933
:1033600000200877FFE7FFE701980068006900F098
:1033700010010020B0EB111F29D0FFE70198006871
:10338000C06800F010010020B0EB111F1ED0FFE755
:10339000019801686FF01000086101990820087712
:1033A00001980068C06910F4407F04D0FFE70198DD
:1033B000FFF7CAFB06E0019800F0AEF8019800F0B4
:1033C000A3F9FFE7019900200877FFE7FFE70198DD
:1033D00000680069C00780B1FFE701980068C06815
:1033E000C00748B1FFE7019801686FF0010008616C
:1033F000019800F073FAFFE7FFE7019800680069A1
:10340000C1B20020B0EBD11F13D0FFE701980068D4
:10341000C068C1B20020B0EBD11F09D0FFE701980E
:1034200001686FF0800008610198FFF777F9FFE706
:10343000FFE701980068006900F040010020B0EB50
:10344000911F14D0FFE701980068C06800F04001A8
:103450000020B0EB911F09D0FFE7019801686FF0E1
:1034600040000861019800F069FAFFE7FFE7019862
:103470000068006900F020010020B0EB511F14D05B
:10348000FFE701980068C06800F020010020B0EB61
:10349000511F09D0FFE7019801686FF02000086113
:1034A0000198FFF73FF9FFE7FFE702B080BD00009A
:1034B00080B588B007900020069005900490039096
:1034C000029007980068B0F1804F22D1FFE7FFE734
:1034D0000020019043F63000C4F20200016841F080
:1034E00001010160006800F0010001900198FFE710
:1034F0004FF40040029002200390002004900590B9
:10350000012006900020C4F2020002A9FEF78AF80A
:10351000FFE708B080BD000081B0009001B07047A7
:1035200080B586B004900391029200208DF80700C8
:10353000FFE7049890F83C00012804D1FFE702203F
:103540008DF8170089E00499012081F83C00FFE71D
:10355000FFE7029800900C2800F270800099DFE8E5
:1035600001F0076D6D6D206D6D6D3A6D6D6D5300E1
:1035700004980068039904F0A1FD04980168886923
:1035800040F00800886104980168886920F0040010
:10359000886103980269049801688869104388610A
:1035A00050E004980068039904F0FEFD0498016857
:1035B000886940F40060886104980168886920F493
:1035C000806088610398026904980168886940EA0C
:1035D0000220886136E004980068039904F05EFEDA
:1035E00004980168C86940F00800C861049801683F
:1035F000C86920F00400C861039802690498016852
:10360000C8691043C8611DE004980068039904F07C
:10361000BFFE04980168C86940F40060C86104985E
:103620000168C86920F48060C86103980269049841
:103630000168C86940EA0220C86103E001208DF8F2
:103640000700FFE7FFE70499002081F83C00FFE74F
:103650009DF807008DF81700FFE79DF8170006B0EA
:1036600080BD000080B582B00090009820B9FFE7CF
:1036700001208DF807003FE0009890F83D0040B928
:10368000FFE70099002081F83C00009800F038F82E
:10369000FFE70099022081F83D00009951F8040BE2
:1036A00004F0F2FB0099012081F84600FFE7009941
:1036B000012081F83E00009981F83F00009981F8CF
:1036C0004000009981F84100FFE7FFE700990120E1
:1036D00081F84200009981F84300009981F8440084
:1036E000009981F84500FFE70099012081F83D002D
:1036F00000208DF80700FFE79DF8070002B080BDAD
:1037000081B0009001B0704781B0009001B0704767
:1037100080B58CB00A900991099828B9FFE70A98FA
:1037200090F83E0007901CE00998042805D1FFE7B7
:103730000A9890F83F00069010E00998082805D1F3
:10374000FFE70A9890F84000059004E00A9890F886
:1037500041000590FFE705980690FFE7069807905F
:10376000FFE70798012804D0FFE701208DF82F001C
:10377000AFE0099828B9FFE70A99022081F83E00D6
:103780001EE00998042806D1FFE70A99022081F873
:103790003F00049012E00998082806D1FFE70A9933
:1037A000022081F84000039005E00A99022081F888
:1037B00041000390FFE703980490FFE70498FFE7B8
:1037C0000A98006809990122019204F02BFC0198E3
:1037D0000A9909680022C4F20102914202900CD0B9
:1037E000FFE70A9800684FF60041CBF6FE710844E7
:1037F000B0FA80F040090290FFE70298C00738B1A4
:10380000FFE70A980168486C40F400404864FFE70D
:103810000A9800680021C4F2010188423CD0FFE709
:103820000A980068B0F1804F36D0FFE70A98006828
:1038300040F20041C4F2000188422DD0FFE70A980F
:10384000006840F60001C4F20001884224D0FFE77E
:103850000A98006840F60041C4F2000188421BD07B
:10386000FFE70A98006840F20041C4F20101884273
:1038700012D0FFE70A98006844F20001C4F2010187
:10388000884209D0FFE70A98006841F60001C4F2B7
:103890000001884212D1FFE70A980068806800F0B2
:1038A000070008900898062807D0FFE70A980168E3
:1038B000086840F001000860FFE706E00A98016828
:1038C000086840F001000860FFE700208DF82F0035
:1038D000FFE79DF82F000CB080BD000081B0009084
:1038E00001B0704784B003900291002001900298CB
:1038F00000900C281DD80099DFE801F0071B1B1B66
:103900000C1B1B1B111B1B1B160003980068406B34
:1039100001900FE003980068806B01900AE0039823
:103920000068C06B019005E003980068006C01908E
:1039300000E0FFE7019804B07047000081B00090FC
:1039400001B0704782B00190ADF8021002B070472C
:1039500081B0009001B0704780B592B0119011987D
:1039600000680068109011980068C0680F90119866
:10397000006840690E9000200D900C90109800F0A7
:103980000F000D900D9888B9FFE79DF84000800664
:1039900000280AD5FFE79DF83C008006002804D5E2
:1039A000FFE7119804F0E0FFE3E1FFE70D9800283E
:1039B00000F0C280FFE79DF83800C00738B9FFE784
:1039C000BDF83C0010F4907F00F0B680FFE79DF852
:1039D0004000C00758B1FFE79DF83D00C00730B177
:1039E000FFE71199086C40F001000864FFE79DF8BB
:1039F0004000400700280BD5FFE79DF83800C007BE
:103A000030B1FFE71199086C40F002000864FFE74D
:103A10009DF84000800700280BD5FFE79DF838008F
:103A2000C00730B1FFE71199086C40F0040008644A
:103A3000FFE79DF840000007002811D5FFE79DF83B
:103A40003C008006002805D4FFE79DF83800C00739
:103A500030B1FFE71199086C40F008000864FFE7F7
:103A60001198006C002866D0FFE79DF840008006A2
:103A700000280AD5FFE79DF83C008006002804D501
:103A8000FFE7119804F070FFFFE7119800684069A4
:103A9000C0F380100C901198006C0007002804D42B
:103AA000FFE70C9800283ED0FFE7119804F0E2FEF3
:103AB000119800684069400600282FD5FFE7FFE70E
:103AC000FFE71198006850E8050F20F040000B90C8
:103AD000FFE70B991198026842E805100028F0D121
:103AE000FFE7FFE71198806B98B1FFE71198816BB2
:103AF00048F24570C0F6000008651198806BFDF72C
:103B0000A3FA28B1FFE71198806B016D8847FFE7A2
:103B100003E01198FFF71CFFFFE703E01198FFF7A0
:103B200017FFFFE706E01198FFF712FF1199002039
:103B30000864FFE7FFE71CE11198006B012840F0E3
:103B4000F880FFE79DF84000C006002840F1F180B2
:103B5000FFE79DF83C00C006002840F1EA80FFE73F
:103B6000FFE700200A901198006800680A901198F9
:103B7000006840680A900A98FFE711980068406959
:103B8000400600287ED5FFE71198806B00684068EA
:103B9000ADF82600BDF82600002872D0FFE7BDF87A
:103BA00026001199898D88426BDAFFE7BDF826005F
:103BB0001199C8851198806BC069B0F5807F58D085
:103BC000FFE7FFE7FFE71198006850E8030F20F4D4
:103BD00080700890FFE708991198026842E8031086
:103BE0000028F0D1FFE7FFE7FFE7FFE71198006843
:103BF00050E8050F20F001000790FFE707991198A2
:103C0000026842E805100028F0D1FFE7FFE7FFE770
:103C1000FFE71198006850E8050F20F0400006907B
:103C2000FFE706991198026842E805100028F0D1D4
:103C3000FFE7FFE71199202081F83E00119900204D
:103C40000863FFE7FFE71198006850E8030F20F0D2
:103C500010000590FFE705991198026842E80310EB
:103C60000028F0D1FFE7FFE71198806BFDF776F9A8
:103C7000FFE71198818DC28D891A89B2FFF762FE24
:103C8000FFE776E01199888DC98D401AADF81200D2
:103C90001198C08D00284BD0FFE7BDF81200002816
:103CA00046D0FFE7FFE7FFE71198006850E8030FF1
:103CB00020F490700390FFE703991198026842E89E
:103CC00003100028F0D1FFE7FFE7FFE7FFE71198B7
:103CD000006850E8050F20F001000290FFE702990C
:103CE0001198026842E805100028F0D1FFE7FFE7CD
:103CF0001199202081F83E00119900200863FFE708
:103D0000FFE71198006850E8030F20F010000190C1
:103D1000FFE701991198026842E803100028F0D1EA
:103D2000FFE7FFE71198BDF81210FFF70BFEFFE762
:103D30001FE09DF84000000600280AD5FFE79DF827
:103D40003C000006002804D5FFE7119804F094FF1A
:103D50000FE09DF84000400600280AD5FFE79DF8D7
:103D60003C004006002804D5FFE7119804F0CCFD84
:103D7000FFE712B080BD000080B582B000900098CF
:103D800020B9FFE701208DF807003EE00098806928
:103D900008B1FFE700E0FFE7009890F83D0040B968
:103DA000FFE70099002081F83C00009800F032F80D
:103DB000FFE70099242081F83D0000980168C86859
:103DC00020F40050C860009804F080FE009801685C
:103DD000086920F49040086100980168486920F063
:103DE0002A00486100980168C86840F40050C86023
:103DF000009900200864009A202182F83D10009A62
:103E000082F83E108DF80700FFE79DF8070002B02A
:103E100080BD000080B592B01190002010900F90EE
:103E20000E900D900C901198006845F20001C4F2BC
:103E30000001884240F09880FFE7FFE700200B90E8
:103E400043F64000C4F20200016841F480110160B1
:103E5000006800F480100B900B98FFE7FFE700204C
:103E60000A9043F63000C4F20200016841F00401F8
:103E70000160006800F004000A900A98FFE7FFE77D
:103E80000020099043F63000C4F20200016841F0BE
:103E900008010160006800F0080009900998FFE738
:103EA0004FF480500C90022001900D90002005905E
:103EB0000E90032002900F9008200390109040F67F
:103EC0000000C4F202000CA90491FDF7ABFBDDF881
:103ED00004C0029A03980499059B4FF0040ECDF894
:103EE00030E0CDF834C00E930F92109040F60040B1
:103EF000C4F20200FDF796FB059940F23020C2F2B1
:103F00000000069046F2B802C4F2020202604FF0CE
:103F10000062426040228260C1604FF480620261B0
:103F2000416181614FF48072C2614FF400320262DC
:103F30004162FDF73BFA18B1FFE7FCF71FFEFFE710
:103F4000FFE7119840F23021C2F20001416311985D
:103F50008863FFE73520009000221146FDF7E6FD5B
:103F60000098FDF7D9FD3CE01198006844F200414B
:103F7000C4F20001884233D1FFE7FFE70020089038
:103F800043F64000C4F20200016841F400310160D0
:103F9000006800F4003008900898FFE7FFE7002071
:103FA000079043F63000C4F20200016841F00101BD
:103FB0000160006800F0010007900798FFE70C20FF
:103FC0000C9002200D9000200E9003200F900720EF
:103FD00010900020C4F202000CA9FDF723FBFFE7BC
:103FE000FFE712B080BD000080B584B0029001915F
:103FF000ADF80220029890F83E00202828D1FFE773
:10400000019820B1FFE7BDF8020020B9FFE70120C9
:104010008DF80F0020E0FFE7029890F83C0001289F
:1040200004D1FFE702208DF80F0015E0029901206E
:1040300081F83C00FFE7FFE702990020086302983F
:104040000199BDF8022004F0DFFD8DF80F0003E0B8
:1040500002208DF80F00FFE79DF80F0004B080BD2F
:1040600080B582B0019040F2A410C2F20000006856
:104070000090032800F28A800099DFE801F0021224
:10408000335440F28010C2F200000078FF2807D1BC
:10409000FFE740F2A411C2F2000101200860FFE72F
:1040A0007BE040F28010C2F200000078FF2807D1C8
:1040B000FFE740F2A411C2F200010120086010E005
:1040C00040F28010C2F20000007840F2E831C2F203
:1040D0000001086040F2A411C2F200010220086051
:1040E000FFE75AE040F28010C2F200000078FF289B
:1040F00007D1FFE740F2A411C2F2000101200860DD
:1041000010E040F28010C2F20000007840F2AC31C2
:10411000C2F20001086040F2A411C2F200010320C3
:104120000860FFE739E040F28010C2F2000000783A
:10413000FF2807D1FFE740F2A411C2F200010120DD
:10414000086022E040F28010C2F200000078FE28F1
:1041500007D1FFE740F2EC31C2F200010120086014
:1041600006E040F2EC31C2F2000100200860FFE7F7
:1041700040F2A411C2F200010020086040F2A81130
:10418000C2F2000101200860FFE706E040F2A4113E
:10419000C2F2000100200860FFE740F26430C2F282
:1041A000000040F28011C2F200010122FFF71CFF63
:1041B00002B080BD80B58AB008900791ADF81A2092
:1041C000059300200290089890F83D00202840F0C8
:1041D0009080FFE7079820B1FFE7BDF81A0020B9EB
:1041E000FFE701208DF8270087E0FFE7089890F8A7
:1041F0003C00012804D1FFE702208DF827007CE075
:104200000899012081F83C00FFE7FFE708990020AA
:1042100008640899212081F83D00FDF7E9FB029030
:10422000BDF81A0008998884BDF81A000899C88456
:1042300008988068B0F5805F09D1FFE708980069A9
:1042400028B9FFE7002004900798039004E007983E
:10425000049000200390FFE7FFE70899002081F811
:104260003C00FFE7FFE70898C08C58B3FFE70898C9
:10427000029B05996A4611608021002204F046FDE8
:1042800020B1FFE703208DF8270036E0049858B9E5
:10429000FFE7039800886FF35F200899096848607A
:1042A00003980230039008E00498007808990968A0
:1042B0004860049801300490FFE70899C88C0138E1
:1042C000C884D0E70898029B05996A46116040218E
:1042D000002204F01BFD20B1FFE703208DF827002A
:1042E0000BE00899202081F83D0000208DF8270080
:1042F00003E002208DF82700FFE79DF827000AB0B1
:1043000080BD000080B586B004900391ADF80A200E
:10431000049890F83D00202874D1FFE7039820B15D
:10432000FFE7BDF80A0020B9FFE701208DF817006C
:104330006CE0FFE7049890F83C00012804D1FFE707
:1043400002208DF8170061E00499012081F83C00FB
:10435000FFE7FFE7039804990862BDF80A00049993
:104360008884BDF80A000499C88404990020086470
:10437000049A212182F83D1004994A6B48F2E171B8
:10438000C0F60001D16304994A6B48F65D01C0F69E
:104390000001116404994A6B48F26571C0F600018E
:1043A000D1640499496B086503A8019004980268D8
:1043B000406B019909680432BDF80A30FDF7AEF888
:1043C000049801686FF040000860FFE7049900203E
:1043D00081F83C00FFE7FFE7FFE70498006850E83A
:1043E000050F40F080000090FFE7009904980268F4
:1043F00042E805100028F0D1FFE7FFE700208DF824
:10440000170003E002208DF81700FFE79DF8170062
:1044100006B080BD81B0009001B0704781B00090BF
:1044200001B07047FFE7FEE780B58AB001F0F6FF04
:10443000ADF8260000200490079002F0F1FA0498ED
:1044400040F25E11C2F200010880BDF8260040F281
:104450005611C2F20001088001460591992800F02A
:104460004082FFE70598B0F5AA7F00F02081FFE7C2
:10447000059841F20551884200F05D82FFE70598FA
:1044800041F21151884200F02181FFE70598B0F513
:10449000A95F00F03B81FFE7059841F22651884271
:1044A00000F04481FFE7059841F28151884200F015
:1044B000E582FFE7059841F20261884200F08C82B4
:1044C000FFE7059842F25301884200F08D82FFE732
:1044D000059844F23551884200F03881FFE705988D
:1044E00044F24771884200F0B381FFE7059845F236
:1044F0001031884200F03981FFE7059845F2084104
:10450000884200F01082FFE7059846F26771884202
:1045100000F0A681FFE7059846F60901884200F001
:104520001A82FFE7059846F61401884200F03F81A1
:10453000FFE7059847F27551884200F09181FFE747
:10454000059847F28371884200F05381FFE7059890
:1045500047F28971884200F05B81FFE7059847F2D6
:104560009371884200F01183FFE7059847F2967136
:10457000884200F0D082FFE7059848F23101884276
:1045800000F05681FFE7059848F25731884200F065
:104590007D81FFE7059849F29001884200F07E8115
:1045A000FFE7059849F20231884200F02D82FFE7CB
:1045B000059849F22031884200F0BD81FFE7059857
:1045C00049F22531884200F0CE81FFE7059849F293
:1045D0002731884200F0DF81FFE7059849F2283152
:1045E000884200F0C081FFE7059849F229318842EE
:1045F00000F01A82FFE7059849F23131884200F055
:10460000BA81FFE7059849F23531884200F0B3815D
:10461000FFE7059849F23831884200F0FD81FFE755
:10462000059849F24031884200F00F82FFE7059873
:1046300049F24131884200F01082FFE7059849F2C3
:104640008141884200F02282FFE7059849F28641C5
:10465000884200F03E82FFE7059849F28741401A00
:104660000228C0F06082FFE7059849F29551884220
:1046700000F0F680FFE705984AF61141884200F005
:10468000BB81FFE705984BF20551884200F06E822E
:10469000FFE705984BF20951884200F07682FFE768
:1046A00005984CF20551884200F0608285E240F2A4
:1046B0005811C2F2000141F2020008804CF22E7043
:1046C000C0F600009C2105F0AFFC7FE240F25811DB
:1046D000C2F20001032008804CF21671C0F60001FE
:1046E0000791ADF81A0040F20C00C2F200000890E9
:1046F00008994FF4F070088040F21400C2F20000F4
:10470000089008994FF4A07008805FE240F25811B9
:10471000C2F2000140F2134008804CF21970C0F65A
:10472000000007900620ADF81A004FE240F2581141
:10473000C2F2000140F2134008804CF21F70C0F634
:10474000000007900C20ADF81A003FE240F258112B
:10475000C2F200014FF4805008804CF20850C0F6BD
:1047600000009C2105F060FC30E240F25811C2F2DA
:10477000000140F6136008804CF2A450C0F600001F
:1047800007900220ADF81A0040F20C00C2F20000BF
:10479000089008994FF4F070088040F21400C2F2BB
:1047A0000000089008994FF4A07008800EE240F2D3
:1047B0005811C2F2000140F2034008804CF22B7005
:1047C000C0F6000007900320ADF81A0040F20C007C
:1047D000C2F20000089008994FF4F070088040F28F
:1047E0001400C2F20000089008994FF4A0700880ED
:1047F000ECE140F25811C2F2000141F202100880CF
:104800004CF2CA70C0F60000902105F00DFCDDE10D
:1048100040F25811C2F2000140F2134008804CF6F9
:104820005A00C0F6000007904120ADF81A00CDE113
:1048300040F25811C2F2000141F2134008804CF2DC
:104840009010C0F6000007901220ADF81A00BDE1EC
:1048500040F25811C2F2000141F20160088007E005
:1048600040F25811C2F2000141F201400880FFE716
:1048700040F2B131C2F20001012008704CF2A210E6
:10488000C0F60000702105F07BFB9FE140F258115B
:10489000C2F2000141F20340088007E040F25811E3
:1048A000C2F2000141F213400880FFE74CF21220EF
:1048B000C0F6000007900220ADF81A0040F20C008C
:1048C000C2F20000089008994FF4F070088040F29E
:1048D0001400C2F20000089008994FF4A0700880FC
:1048E00074E140F25811C2F2000141F21340088015
:1048F0004CF21420C0F6000007901D20ADF81A00FD
:1049000040F20C00C2F20000089008994FF4F070D9
:10491000088040F21400C2F20000089008994FF499
:10492000A070088052E140F25811C2F2000141F239
:104930000400088007E040F25811C2F2000141F281
:1049400004000880FFE74CF23220C0F60000D821B6
:1049500005F06AFB3AE140F25811C2F2000141F25F
:10496000021008800FE040F25811C2F200014FF42B
:104970008850088007E040F25811C2F200014FF45D
:1049800080500880FFE74CF20A30C0F60000CC21CE
:1049900005F04AFB1AE140F25811C2F2000140F260
:1049A000034008804CF2D630C0F6000007901E206D
:1049B000ADF81A0040F20C00C2F20000089008990D
:1049C0004FF4C870088040F21400C2F20000089052
:1049D0000899F0200880F9E040F25811C2F2000175
:1049E00040F21350088027E040F25811C2F2000153
:1049F00041F2174008801FE040F25811C2F2000156
:104A000041F21340088017E040F25811C2F2000151
:104A100040F2034008800FE040F25811C2F200015A
:104A200040F21340088007E040F25811C2F2000142
:104A300041F203600880FFE74CF2F430C0F600005A
:104A400007900320ADF81A00C0E040F25811C2F2FE
:104A5000000141F21340088000E0FFE740F25811E6
:104A6000C2F2000140F2134008804CF2F730C0F669
:104A7000000007906520ADF81A00A7E040F2581139
:104A8000C2F2000140F21340088007E040F25811E2
:104A9000C2F2000140F207400880FFE74CF25C40A0
:104AA000C0F6000007904520ADF81A0040F20C0057
:104AB000C2F20000089008994FF4F070088040F2AC
:104AC0001400C2F20000089008994FF4A07008800A
:104AD0007CE040F25811C2F2000140F2034008802D
:104AE0004CF2A140C0F6000007903B20ADF81A0040
:104AF00040F20C00C2F20000089008994FF4F070E8
:104B0000088040F21400C2F20000089008994FF4A7
:104B1000A07008805AE040F25811C2F2000140F241
:104B20000340088007E040F25811C2F2000140F251
:104B300013400880FFE74CF2DC40C0F6000007900D
:104B40002B20ADF81A0040F20C00C2F200000890D1
:104B500008994FF4F070088040F21400C2F200008F
:104B6000089008994FF4A07008802FE040F2581187
:104B7000C2F2000141F2080008804CF2A650C0F6D3
:104B80000000B02105F050FA20E040F25811C2F2C6
:104B900000014FF4805008804CF25660C0F60000CF
:104BA000C02105F041FA40F20C00C2F2000008906A
:104BB00008994FF4C870088008E040F21400C2F26F
:104BC00000000890089900200880FFE740F2581084
:104BD000C2F200000088C0F3003040F25C11C2F263
:104BE000000108800798A0B1FFE74CF69B00C0F6D3
:104BF0000000092105F0C4F90798BDF91A1005F065
:104C0000BFF94CF6A400C0F60000062105F0B8F983
:104C1000FFE70020039002F0E1F8039800F0B0FDF8
:104C200040F25610C2F20000008849F288418842E2
:104C30002FD1FFE740F2B030C2F200000021029114
:104C400001704FF6E072084600F006FA0299084635
:104C500001F07EFD4FF61F71884219D1FFE7062053
:104C60008DF819003A200DF119010122019200F08E
:104C7000DDFE019840F25812C2F20002118821F0C4
:104C80001001118040F2B031C2F200010870FFE75C
:104C9000FFE70AB080BD000081B08DF803008DF8F9
:104CA00002108DF801209DF8030000F0F8000002CA
:104CB0009DF8021001F0FC0140EAC1009DF80110CE
:104CC00040EAD10001B0704710B586B08C468646E8
:104CD00009980899ADF816E0ADF814C08DF81320C6
:104CE000ADF81030ADF80E108DF80D00BDF91600BE
:104CF000EF281DDCFFE7BDF91400B0F5A07F17DA3F
:104D0000FFE7BDF916009DF80D1001EB410100EB26
:104D10004100013800280BD4FFE7BDF914009DF8CD
:104D20000D1000EBC1000138B0F1FF3F01DCFFE7DF
:104D3000AAE000208DF80C00FFE79DF90C00052883
:104D400000F3A280FFE79DF90C00052804D1FFE7DE
:104D500000208DF80B0090E09DF8130000EB800020
:104D60009DF90C1001444CF6AA00C0F60000405C0E
:104D70008DF80B0000208DF80A00FFE79DF90A006E
:104D8000072879DCFFE79DF80B00C00780B3FFE739
:104D90009DF80D00012811D1FFE7BDF816009DF91F
:104DA0000C100844BDF814109DF90A201144BDF8F8
:104DB000102000B209B200F04FF918E0BDF816104B
:104DC0009DF90C009DF80D3010FB0310BDF8142068
:104DD0009DF90A1011FB0321BDF81020EC46CCF818
:104DE000002000B209B21A4600F070FAFFE737E07F
:104DF000BDF80E00BDF81010884230D0FFE79DF8D6
:104E00000D00012811D1FFE7BDF816009DF90C1027
:104E10000844BDF814109DF90A201144BDF80E2075
:104E200000B209B200F018F918E0BDF816109DF9AB
:104E30000C009DF80D3010FB0310BDF814209DF9F7
:104E40000A1011FB0321BDF80E20EC46CCF800201F
:104E500000B209B21A4600F039FAFFE7FFE7FFE7B0
:104E60009DF80B0040088DF80B00FFE79DF80A0045
:104E700001308DF80A0081E7FFE7FFE79DF80C009D
:104E800001308DF80C0058E706B010BD80B584B035
:104E9000ADF80E00ADF80C10ADF80A20ADF80830F2
:104EA000BDF90E00BDF90C10BDF90A30BDF808209F
:104EB000EC46CCF80020012200F008FA04B080BDD6
:104EC00080B588B084460A98ADF81EC0ADF81C10B5
:104ED000ADF81A20ADF81830ADF81600BDF918007D
:104EE000BDF91C10401AFBF7CDF90090BDF91A006E
:104EF000BDF91E10401AFBF7C5F9009902460020C3
:104F00009142C8BF0120ADF81400BDF81400C8B12B
:104F1000FFE7BDF81E00ADF81200BDF81C00ADF8AB
:104F20001E00BDF81200ADF81C00BDF81A00ADF867
:104F30001000BDF81800ADF81A00BDF81000ADF86B
:104F40001800FFE7BDF91E00BDF91A10884219DDEF
:104F5000FFE7BDF81E00ADF80E00BDF81A00ADF871
:104F60001E00BDF80E00ADF81A00BDF81C00ADF82B
:104F70000C00BDF81800ADF81C00BDF80C00ADF831
:104F80001800FFE7BDF81A00BDF81E10401AADF872
:104F90000A00BDF91800BDF91C10401AFBF772F9A0
:104FA000ADF80800BDF90A0000EBD0704008ADF87C
:104FB0000600BDF91C00BDF91810884204DAFFE7AD
:104FC0000120ADF8040004E04FF6FF70ADF80400D6
:104FD000FFE7FFE7BDF91E00BDF91A10884239DC72
:104FE000FFE7BDF8140048B1FFE7BDF91C00BDF9AB
:104FF0001E10BDF8162000F02FF808E0BDF91E00C5
:10500000BDF91C10BDF8162000F026F8FFE7BDF82A
:105010000810BDF80600401AADF80600BDF90600FC
:10502000B0F1FF3F0FDCFFE7BDF80410BDF81C0036
:105030000844ADF81C00BDF80A10BDF8060008448D
:10504000ADF80600FFE7FFE7BDF81E000130ADF840
:105050001E00BFE708B080BD80B582B0ADF8060085
:10506000ADF80410ADF80220BDF9060000281BD4ED
:10507000FFE7BDF90400002816D4FFE7BDF90600DC
:1050800040F21801C2F20001B1F9001088420BDAB7
:10509000FFE7BDF9040040F21601C2F20001B1F9C8
:1050A0000010884201DBFFE71FE040F2B030C2F29F
:1050B0000000007838B1FFE7BDF8020004F0E4F822
:1050C000ADF80200FFE7BDF90620BDF90430104637
:1050D000194601F01FFD40F25010C2F20000008896
:1050E000BDF8021002F0DAFBFFE702B080BD00005D
:1050F00080B584B0ADF80E00ADF80C10ADF80A2004
:10510000ADF80830BDF90E00BDF80C10BDF90A204D
:10511000891A52000132BDF8083009B212B2FFF705
:10512000B5FEBDF90E00BDF90C10BDF90A20BDF8A1
:105130000830EC46CCF804300023CCF800300323D0
:1051400000F002F804B080BD10B586B08C468646EB
:1051500009980899ADF816E0ADF814C0ADF8122022
:105160008DF81130ADF80E10ADF80C00BDF812003E
:10517000C0F10100ADF80A000120ADF80800BDF84B
:1051800012100020A0EB4101ADF80610ADF80400AC
:10519000BDF81200ADF80200FFE7BDF90400BDF94B
:1051A0000210884280F28F80FFE7BDF90A000028D4
:1051B00012D4FFE7BDF802000138ADF80200BDF8D7
:1051C00006000230ADF80600BDF80610BDF80A0072
:1051D0000844ADF80A00FFE7BDF804000130ADF85F
:1051E0000400BDF808000230ADF80800BDF8081052
:1051F000BDF80A000844ADF80A009DF81100C00788
:1052000068B3FFE7BDF81600BDF804100844BDF808
:105210001410BDF90230C91ABDF80E2002EB43028A
:105220000132BDF80C3000B209B212B2FFF72EFE07
:10523000BDF81600BDF802100844BDF81410BDF901
:105240000430C91ABDF80E2002EB43020132BDF84A
:105250000C3000B209B212B2FFF718FEFFE79DF85A
:105260001100800700282DD5FFE7BDF81600BDF816
:105270000410401ABDF81410BDF90230C91ABDF867
:105280000E2002EB43020132BDF80C3000B209B22D
:1052900012B2FFF7FBFDBDF81600BDF80210401A70
:1052A000BDF81410BDF90430C91ABDF80E2002EB88
:1052B00043020132BDF80C3000B209B212B2FFF75E
:1052C000E5FDFFE769E706B010BD000070B588B0E6
:1052D00084460C98ADF81EC0ADF81C10ADF81A202D
:1052E000ADF81830ADF8160040F2B030C2F2000050
:1052F000007838B1FFE7BDF8160003F0C5FFADF840
:105300001600FFE7BDF91A00B0F1FF3F0DDCFFE723
:10531000BDF81A004042ADF81A00BDF81A10BDF8E9
:105320001E00401AADF81E00FFE7BDF81E00BDF8D4
:105330001A100844ADF81400BDF91E00B0F1FF3F8B
:1053400004DCFFE70020ADF81E00FFE7BDF9140004
:1053500040F21801C2F20001B1F90010884208DDE4
:10536000FFE740F21800C2F200000088ADF8140018
:10537000FFE7BDF81400BDF81E10401AADF81A0082
:10538000BDF91800B0F1FF3F0DDCFFE7BDF81800D4
:105390004042ADF81800BDF81810BDF81C00401AC6
:1053A000ADF81C00FFE7BDF81C00BDF8181008445C
:1053B000ADF81400BDF91C00B0F1FF3F04DCFFE7BD
:1053C0000020ADF81C00FFE7BDF9140040F2160103
:1053D000C2F20001B1F90010884208DDFFE740F297
:1053E0001600C2F200000088ADF81400FFE7BDF817
:1053F0001400BDF81C10401AADF81800BDF91E00CD
:10540000BDF91C10BDF81A200244013ABDF818304D
:105410000B44013B12B21BB201F07CFB40F2184E70
:10542000C4F2020E4FF48030CEF800001821C4F20E
:10543000020102914FF48010086040F25010C2F255
:10544000000042788DF8132000788DF812004FF09C
:10545000E0650D604FF08764CEF8004040F6180C10
:10546000C4F2020C4FF40003CCF800309DF8132076
:1054700002F00100400202F0040640EA062002F0B9
:10548000800240EA420008609DF8132002F0080004
:1054900002F0100640EA460002F0200640EA5600FC
:1054A00002F0400240EA0210CEF800009DF813001E
:1054B00000F002008001CCF800004FF400320392AB
:1054C0000A600A600A600A600A600A600A600A608C
:1054D0000A600A600A600A600A60022008600860C8
:1054E0000D60CEF80040CCF800309DF8124004F07A
:1054F00001035B0204F0040543EA052304F0800481
:1055000043EA44030B609DF8124004F0080304F0E2
:10551000100543EA450304F0200543EA550304F06F
:10552000400443EA0413CEF800309DF8123003F033
:1055300002039B01CCF800300A600A600A600A602E
:105540000A600A600A600A600A600A600A600A600B
:105550000A600860086010200860BDF91800BDF9F5
:105560001A1088420DDDFFE7BDF81800ADF81400F1
:10557000BDF81A00ADF81800BDF81400ADF81A0017
:10558000FFE79DF817008DF81100BDF816008DF8A3
:105590001000FFE7BDF91800411EADF818100128F2
:1055A000C0F29E80FFE7BDF81A00ADF81400FFE7D7
:1055B0001821C4F2020100914FF0E0650D6040F245
:1055C000184EC4F2020E4FF08764CEF8004040F649
:1055D000180CC4F2020C4FF40003CCF800309DF814
:1055E000112002F00100400202F0040640EA062009
:1055F00002F0800240EA420008609DF8112002F0AB
:10560000080002F0100640EA460002F0200640EAD8
:10561000560002F0400240EA0210CEF800009DF869
:10562000110000F002008001CCF800004FF40032BD
:1056300001920A600A600A600A600A600A600A60F1
:105640000A600A600A600A600A600A600220086054
:1056500008600D60CEF80040CCF800309DF8104096
:1056600004F001035B0204F0040543EA052304F09F
:10567000800443EA44030B609DF8104004F00803E3
:1056800004F0100543EA450304F0200543EA5503FE
:1056900004F0400443EA0413CEF800309DF81030C3
:1056A00003F002039B01CCF800300A600A600A6034
:1056B0000A600A600A600A600A600A600A600A609A
:1056C0000A600A6008600860FFE7BDF8140001384E
:1056D000ADF81400000400287FF46AAFFFE759E733
:1056E00040F21841C4F202010120086040F2581053
:1056F000C2F200000088C00790B1FFE740F25610E8
:10570000C2F20000008841F2265188421BD1FFE717
:1057100040F2F030C2F200000078C00798B1FFE715
:1057200040F21800C2F200000088411E40F216004C
:10573000C2F20000008801380AB203B20021084614
:1057400001F0E8F9FFE708B070BD000080B582B055
:10575000ADF8060040F21800C2F20000B0F90020D7
:1057600040F21600C2F20000B0F90030BDF80600A9
:105770006946086000210846FFF7A8FD02B080BD19
:1057800080B582B08DF8070040F25810C2F20000D8
:1057900002889DF8071081EA123101F0010140F200
:1057A0005C12C2F2000211800088C007002849D0B4
:1057B000FFE740F2B130C2F20000007898B3FFE793
:1057C00040F25610C2F20000008848F24731884289
:1057D0000AD0FFE740F25610C2F20000008845F2FE
:1057E000522188420CD1FFE740F25C10C2F2000067
:1057F00001880220002918BF06208DF806000BE062
:1058000040F25C10C2F2000001880A20002918BF93
:1058100008208DF80600FFE701210DF10602084679
:1058200003F008FB0DE040F25C10C2F200000188BA
:105830002020002918BF21200022114603F0FAFA87
:10584000FFE74BE040F25610C2F20000008801462C
:105850000091B0F5AA7F1FD0FFE7009845F22041E4
:10586000884226D0FFE7009847F29371884220D003
:10587000FFE7009849F22521401A02280CD3FFE7E0
:10588000009849F22631884213D0FFE700984BF286
:10589000095188420DD018E040F25C10C2F20000BD
:1058A0000188132040EA810081B2072001F0F6FF51
:1058B00014E040F25C10C2F20000008840F00201E7
:1058C00040F2014001F0EAFF08E040F25C10C2F251
:1058D00000000188612001F0E1FFFFE702B080BD18
:1058E00083B010B589B00D930C920B9108900BA862
:1058F00006900899069A40F24800C2F2000005900E
:1059000005F080FA05980790FFE7079800780028CF
:1059100000F08780FFE7079800780A2814D1FFE796
:1059200040F23F00C2F20000027840F29211C2F24F
:105930000001088800EBC200088040F29011C2F21A
:1059400000010020088068E0079800780D2801D148
:10595000FFE761E040F29010C2F200000490B0F95D
:10596000000040F29211C2F20001B1F90010079A52
:10597000127840F23C03C2F200031B8840F2FC3C68
:10598000C2F2000CBCF800C040F23E0EC2F2000EA3
:10599000CDF80CE09EF80040EE46CEF80440CEF87C
:1059A00000C0FFF791F903980499007800EB4002DA
:1059B000088800EB4200088041F2D850C2F2000093
:1059C0000078C00738B3FFE740F29010C2F2000041
:1059D000B0F9000040F23E01C2F20001097801EB8B
:1059E0004102F021A1EB4201884214DDFFE740F2C1
:1059F0003F00C2F20000027840F29211C2F20001B0
:105A0000088800EBC200088040F29011C2F2000149
:105A100000200880FFE7FFE7FFE7079801300790C5
:105A200073E709B0BDE8104003B0704780B584B09B
:105A3000ADF80E0002918DF80720BDF80E009DF91B
:105A40000710029A03F0F6F904B080BD70B59AB061
:105A500084461E98ADF866C0ADF864101892ADF893
:105A60005E30ADF85C0040F25010C2F200000088D9
:105A7000ADF85600BDF85E00BDF85C104843ADF8C7
:105A800054000020ADF85200ADF8500040F2B130A3
:105A9000C2F20000007860B9FFE740F25810C2F28D
:105AA00000000088C00720B1FFE72E20ADF85600A7
:105AB000FFE7BDF96600BDF96410BDF85E20024441
:105AC000013ABDF85C300B44013B12B21BB201F04D
:105AD00021F8FFE7BDF954000128C0F28084FFE7F8
